:020000040800F2
:100000001005002045010008110E0008130C00081F
:100010000D0E000819090008771D000800000000F7
:10002000000000000000000000000000991200081D
:100030001D09000800000000711100088513000868
:100040005F0100085F0100085F0100085F01000810
:100050005F0100085F0100085F0100085F01000800
:100060005F0100085F0100085F0100085F010008F0
:100070005F0100085F0100085F0100085F010008E0
:100080005F0100085F0100085F0100085F010008D0
:100090005F0100085F0100085F0100085F010008C0
:1000A0005F0100085F0100085F0100085F010008B0
:1000B00029160008451600085F0100085F010008C6
:1000C0005F0100085F0100085F0100085F01000890
:1000D0005F010008091B00085F0100085F010008BC
:1000E0005F0100085F0100085F0100085F01000870
:1000F0005F0100085F0100085F0100085F01000860
:100100005F0100085F0100085F0100085F0100084F
:100110005F0100085F0100085F0100085F0100083F
:100120005F0100085F0100085F0100085F0100082F
:10013000DFF80CD000F0CEFB00480047292800086B
:10014000100500200648804706480047FEE7FEE706
:10015000FEE7FEE7FEE7FEE7FEE7FEE7FEE7FEE777
:100160008913000831010008F0B480EA0102D40FBD
:100170004200B2EB410F02D20246084611464A0045
:1001800042D0C30DDDB2C1F3C752AD1A202D35DA0E
:10019000C1F3160141F4000204B15242C5F1200638
:1001A00002FA06F12A411044B3EBD05F23D0C4B168
:1001B000012DA0EBC35009DCF0BC4FF0004202EA75
:1001C000C352DBB200F5000000F0C8BA400000F1F5
:1001D000807000EBC350A0F1807040EAD1704900FC
:1001E00009E0490841EAC071A0EBC35000F50000E6
:1001F000400800EBC350F0BC00F0A7BA61420122F6
:1002000002EB4101001BF6E7F0BC704781F00041B2
:10021000AAE780F00040A7E780EA010210B502F0EB
:100220000043400022D04A001FD0010E01EB1261B2
:10023000C0F35600C2F3560240F4000042F400023C
:10024000A0FB022000047F39140400D0401C50EAB7
:10025000124001D44000491EC2B20C0604EBD0107B
:10026000401C4008802A02D003E0002010BD20F08E
:100270000100002900DA0020184310BD2DE9FE4FCF
:10028000804681EA0300C00F0C46009021F0004137
:1002900023F00045B8EB0200A94105D240462146B3
:1002A00090461C460B46024623F00040104347D0C0
:1002B000270DC7F30A00C3F30A510290401A0190B8
:1002C00040286BDAC3F3130040F4801B0098924679
:1002D00020B10023D2EB030A63EB0B0B01985946C4
:1002E000C0F14002504600F00FFA06460D46504657
:1002F0005946019A00F017FA10EB080061410024FA
:1003000087EA115284EAE7731A4340D0009A62B335
:10031000019A012A4FEA075215DC001B61EB02012A
:100320004FF0004202EA0752CDE90042001C41F5BD
:10033000801132462B4600F04EFA03B0BDE8F08F34
:1003400040462146F9E7001B61EB0201001C41F524
:10035000801300185B412018A2F5001747EB03013A
:1003600040EAD570B6196D4111E06D084FEA3606C6
:1003700045EAC0754FEA0752001B61EB0201001C01
:1003800041F5801149084FEA3000001951413246C9
:100390002B4603B0BDE8F04F00F00EBA00980122E2
:1003A00040000023D0EB020263EBE073009821468B
:1003B0004FEAE074B8EB000061EB0401E9E783F079
:1003C00000435BE781F0004158E72DE9FE4F81EAE9
:1003D000030404F0004421F0004100944FF0000BAE
:1003E00023F0004350EA01045ED052EA03045BD0DC
:1003F000C3F30A54C1F30A552C44A4F2F334019414
:10040000A0FB0254C1F3130141F48011C3F31303A1
:1004100043F4801301FB024400FB034E840A970A55
:1004200044EA815447EA8357A4FB076802958D0A82
:1004300005FB07854FEA932C04FB0C542705029D0E
:100440004FEA065847EA1637B5EB08056EEB070C7E
:10045000870E920E47EA811742EA8312A7FB020138
:10046000B6EB0B0164EB00042B0D43EA0C335E1872
:1004700044EB1C50DA465146E7FB0201C5F3130476
:100480004FEA0B3343EA14534FEA0432019C43EA28
:100490000603A4F10C040294009CCDE900B400F022
:1004A0009AF903B0BDE8F08F00200146F9E72DE985
:1004B000F04D81EA030404F0004B21F0004514469E
:1004C0004FF0000A23F0004150EA050220D054EA20
:1004D00001021DD0C5F30A570246C5F31303C1F349
:1004E0001300C1F30A5640F4801543F48013A7EBC0
:1004F0000608101BD64608F2FD3873EB050002D340
:1005000008F1010801E092185B41B8F1000F03DA2D
:1005100000200146BDE8F08D00204FF48011064612
:1005200084460EE0171B73EB050705D3121B63EB24
:10053000050306434CEA010C49084FEA30009218C3
:100540005B4150EA0107EDD152EA030012D082EA82
:10055000040083EA0501084305D0101BAB4106D215
:100560000122002306E000224FF0004302E06FF07A
:10057000010253101AEB06004CEB085110EB0A0075
:1005800041EB0B01BDE8F04D00F016B9C10F80EA58
:10059000E0700844CA079623002100F0DFB89623D4
:1005A0000022114600F0DAB80EB540F23341029154
:1005B0000021CDE900110A460B4600F00CF903B00A
:1005C00000BD00F0004220F00040C10DC0F3160055
:1005D00040F400007F2901DA00207047962903DCEF
:1005E000C1F19601C84001E096398840002AF4D054
:1005F0004042704720F00040C10DC0F3160040F4A7
:1006000000007F2901DA00207047962903DCC1F140
:100610009601C840704796398840704700F0004204
:1006200030F000400AD0C10D01F56071C0F3160032
:1006300042EA0151C20840071143704700200146B9
:10064000704701F0004330B421F0004150EA01024C
:1006500006D00A0DA2F56072C1F31301002A02DC74
:1006600030BC00207047440F44EAC104C100E018C8
:1006700030BC00EBC25000F068B830B50B46014604
:1006800000202022012409E021FA02F59D4205D331
:1006900003FA02F5491B04FA02F52844151EA2F1DB
:1006A0000102F1DC30BD2DE9F05F054600209246E5
:1006B0009B4688460646814640241BE02846414624
:1006C0004746224600F018F953465A46C01A91414F
:1006D00010D311461846224600F016F82D1A67EB83
:1006E00001084F4622460120002100F00DF817EBCB
:1006F00000094E41201EA4F10104DFDC48463146CA
:100700002A464346BDE8F09F202A04DB203A00FA3F
:1007100002F1002070479140C2F1200320FA03F358
:10072000194390407047202A06DBCB17203A41FA44
:1007300002F043EAE07306E041FA02F3D040C2F16E
:10074000200291400843194670470029A8BF70470E
:10075000401C490008BF20F00100704710B4B0FAF7
:1007600080FC00FA0CF050EA010404BF10BC704792
:1007700049B1CCF1200421FA04F411FA0CF118BFAC
:10078000012121430843A3EB0C01CB1D4FEA00617B
:100790004FEA102042BF002010BC704700EBC3504E
:1007A00010440029A4BF10BC7047401C490008BF7A
:1007B00020F0010010BC704710B5141E73F1000446
:1007C00008DA401C41F1000192185B411A4301D143
:1007D00020F0010010BD2DE9F04D92469B4611B16D
:1007E000B1FA81F202E0B0FA80F220329046FFF7CF
:1007F0008BFF04460F4640EA0A0041EA0B015346CC
:100800005A46084313D0114653EA010019D0C8F1E3
:100810004002504600F070F805460E4650465946D4
:100820004246FFF771FF084305D0012004E020464F
:100830003946BDE8F08D0020054346EAE0762C43BA
:1008400037430A986305E40AA0EB08000022FD0A7A
:1008500044EA47540A3002D500200146E9E7010581
:1008600010196941DDE9084500196941BDE8F04DFD
:10087000A2E7C1F30A52C1F3130140F2FF3341F47E
:1008800080119A4202DA00200146704740F2334359
:100890009A42A2F2334202DC524200F02DB8FFF736
:1008A00033BF000030B5041E71F1000404DB4FF0CB
:1008B0000044404264EB0101141E73F1000405DBA7
:1008C0001C464FF00043524263EB0403994208BFB9
:1008D000904230BD064C074D06E0E06840F0010351
:1008E00094E8070098471034AC42F6D3FFF724FC95
:1008F0002432000844320008202A04DB203A21FA7E
:1009000002F00021704721FA02F3D040C2F1200228
:10091000914008431946704700BFFEE7704700004A
:1009200008B50121082000F035FC4020ADF800009A
:1009300018208DF8030003208DF802006946024854
:1009400000F0CFF808BD0000000C014008B50121FF
:10095000042000F01FFC4020ADF8000004208DF8BA
:1009600003006946014800F0BCF808BD00080140DA
:1009700000B587B00121042000F0FCFB41F61F40C8
:10098000ADF814000020ADF81000ADF81600ADF879
:1009900012008DF8180004A90C4801F063F86020DB
:1009A000ADF800000120ADF802000020ADF808000D
:1009B0006946064800F0D2FF0821044801F01AF801
:1009C0000121024800F044FF07B000BD00080040CC
:1009D00000B587B00121022000F0CCFB4FF6FF707C
:1009E000ADF814004720ADF810000020ADF8160057
:1009F000ADF812008DF8180004A9114801F032F882
:100A00000020ADF80400ADF806000120ADF80800A4
:100A10000020ADF80A00ADF80C0001A9084800F06C
:100A20003DFF0321064800F00DFF01220321044889
:100A300000F08AFF0121024800F00AFF07B000BD64
:100A4000000400400EB50121084600F093FB42F27D
:100A50000F70ADF804004720ADF800000020ADF89D
:100A60000600ADF802008DF8080069464FF080409E
:100A700000F0F8FF0121880700F0E4FE0122114692
:100A8000900700F061FF0121880700F0E1FE0EBD34
:100A900008B54FF4E06000F009FA1D208DF8000061
:100AA00000208DF8010001208DF802008DF8030070
:100AB000684600F0C3F908BD08B54FF4E06000F0E7
:100AC000F5F91C208DF8000000208DF801000320AE
:100AD0008DF8020001208DF80300684600F0AEF9A1
:100AE00008BD2DE9F0410246002500260020002324
:100AF0000024002791F803C00CF00F0591F803C003
:100B00000CF0100CBCF1000F03D091F802C04CEABD
:100B1000050591F800C0BCF1000F31D01468002029
:100B20002BE04FF0010C0CFA00F3B1F800C00CEA16
:100B300003069E4220D183004FF00F0C0CFA03F7FE
:100B4000BC4305FA03FC4CEA040491F803C0BCF171
:100B5000280F06D14FF0010C0CFA00FCC2F814C0AB
:100B60000AE091F803C0BCF1480F05D14FF0010C29
:100B70000CFA00FCC2F810C0401C0828D1D3146045
:100B8000B1F800C0BCF1FF0F34DD546800202EE046
:100B900000F1080C4FF0010808FA0CF3B1F800C09E
:100BA0000CEA03069E4221D183004FF00F0C0CFA91
:100BB00003F7BC4305FA03FC4CEA040491F803C0B4
:100BC000BCF1280F05D100F1080C08FA0CF8C2F8A6
:100BD000148091F803C0BCF1480F07D100F1080C54
:100BE0004FF0010808FA0CF8C2F81080401C0828E1
:100BF000CED35460BDE8F0810246002093680B40DC
:100C00000BB1012000E00020704741617047016195
:100C1000704700BFFEE7000010B520210348FFF732
:100C2000F6FF20210148FFF7F0FF10BD000801404A
:100C30002DE9F04105462C4620211148FFF7E5FF3C
:100C4000002619E0274607F08007802F04D1802175
:100C50000B48FFF7DCFF03E080210948FFF7D5FFD1
:100C60006006040E20210648FFF7D1FF202104482A
:100C7000FFF7CBFF701CC6B2082EE3DBBDE8F081A6
:100C80000008014010B5044600F028F87820FFF76E
:100C9000CFFFFFF7C1FF0020FFF7CAFFFFF7BCFF40
:100CA0002046FFF7C5FFFFF7B7FF00F02BF810BD98
:100CB00010B5044600F012F87820FFF7B9FFFFF7EF
:100CC000ABFF4020FFF7B4FFFFF7A6FF2046FFF77A
:100CD000AFFFFFF7A1FF00F015F810BD10B5202100
:100CE0000748FFF794FF80210548FFF790FF802118
:100CF0000348FFF78AFF20210148FFF786FF10BD58
:100D00000008014010B520210548FFF780FF802131
:100D10000348FFF77AFF80210148FFF778FF10BDF5
:100D20000008014070B504460D4629462046FFF7ED
:100D300063FF98B9C82001F06FFD29462046FFF7F0
:100D40005BFF58B90648006828300549086000BFB5
:100D500029462046FFF750FF0028F9D070BD00005B
:100D60005800002070B504460D4629462046FFF77E
:100D700043FF98B9C82001F04FFD29462046FFF7F0
:100D80003BFF58B90648006828380549086000BF8D
:100D900029462046FFF730FF0028F9D070BD00003B
:100DA0005800002008B501210C2000F0F3F90120C3
:100DB000ADF8000048208DF8030069461148FFF7A0
:100DC00090FE0220ADF8000048208DF8030069462F
:100DD0000C48FFF786FE8020ADF8000048208DF813
:100DE000030069460848FFF77CFE4FF48070ADF8B9
:100DF000000048208DF8030069460348FFF771FEA4
:100E000008BD000000080140000C014000BFFEE7E3
:100E1000704708B54FF4A06000F048F825208DF821
:100E2000000001208DF8010002208DF80200012051
:100E30008DF80300684600F001F808BD70B5002188
:100E400000230F22C47804B3154C246804F4E06432
:100E5000C4F5E064210AC1F10403CA40447804FAED
:100E600003F184781440214309010E4C0678A15502
:100E7000047804F01F050124AC4005786D11AD0025
:100E800005F1E025C5F8004109E0047804F01F05EC
:100E90000124AC40044D0678761145F8264070BD1B
:100EA0000CED00E000E400E080E100E002490143D5
:100EB000024A1160704700000000FA050CED00E0E6
:100EC00070B5002419E004F1B001C8B2002100F0AF
:100ED00026F90021084600F022F90021102000F038
:100EE0001EF9002505E00121002000F018F9681C1A
:100EF000C5B2802DF7DB601CC4B2082CE3DB70BDEB
:100F000010B500F019F920214148FFF780FE80213B
:100F10003F48FFF77CFE4FF400413D48FFF775FE68
:100F2000142001F0F7FC4FF400413948FFF76FFE41
:100F3000322001F0EFFC0021AE2000F0F0F800219B
:100F4000084600F0ECF80021102000F0E8F800213D
:100F5000402000F0E4F80021B02000F0E0F800218B
:100F6000812000F0DCF80021FF2000F0D8F80021FB
:100F7000A12000F0D4F80021A62000F0D0F8002134
:100F8000A82000F0CCF800213F2000F0C8F8002194
:100F9000C82000F0C4F80021D32000F0C0F80021E0
:100FA000084600F0BCF80021D52000F0B8F8002178
:100FB000802000F0B4F80021D82000F0B0F8002123
:100FC000052000F0ACF80021D92000F0A8F800219D
:100FD000F12000F0A4F80021DA2000F0A0F80021B0
:100FE000122000F09CF80021DB2000F098F800218E
:100FF000302000F094F800218D2000F090F80021BE
:10100000142000F08CF80021AF2000F088F810BD0B
:101010000008014070B504460D4605F1B001C8B2A4
:10102000002100F07CF8102141EA1410002100F0AA
:1010300076F804F00F00002100F071F870BD000098
:101040002DE9F04707460E469046994600250024B4
:10105000A8F12000C5B27F2F02DD0027B01CC6B268
:10106000B9F1100F24D131463846FFF7D3FF0024E1
:1010700008E004EB0511194A505C012100F04FF81B
:10108000601CC4B2082CF4DB701CC1B23846FFF7F8
:10109000C1FF002409E004EB051108310F4A505C40
:1010A000012100F03CF8601CC4B2082CF3DB12E014
:1010B00031463846FFF7AEFF00240AE005EB450154
:1010C000074A02EB4101085D012100F028F8601C8D
:1010D000C4B2062CF2DBBDE8F0870000342C000817
:1010E0000C2A00082DE9F04104460F4615469846A3
:1010F00000260FE0AA5D434639462046FFF7A0FFD1
:1011000004F10800C4B2782C02DD0024B81CC7B278
:10111000701CC6B2A85D0028ECD1BDE8F08170B5A6
:1011200005460C461CB12846FFF7C2FD02E02846E2
:10113000FFF7A8FD70BD000008B50121042000F0F4
:1011400029F848F2A000ADF8000003208DF8020055
:1011500010208DF8030069460148FFF7C2FC08BD66
:101160000008014010B5FFF7DBFBFFF701FC10BDE5
:101170007047000029B1064AD2690243044BDA6184
:1011800004E0034AD2698243014BDA6170470000F0
:101190000010024029B1064A92690243044B9A6149
:1011A00004E0034A92698243014B9A617047000050
:1011B0000010024030B500210022002400232D4DF4
:1011C0006D6805F00C0121B1042905D0082923D14F
:1011D00005E0294D056022E0274D05601FE0254D03
:1011E0006D6805F47012234D6D6805F48034022596
:1011F00005EB92421CB9214D554305600BE01D4D96
:101200006D6805F400351DB11C4D5543056002E0C5
:10121000194D5543056002E0174D056000BF00BF42
:10122000144D6D6805F0F0010909154D6B5C0568FA
:10123000DD4045600F4D6D6805F4E061090A104D11
:101240006B5C4568DD4085600A4D6D6805F4605152
:10125000C90A0B4D6B5C4568DD40C560054D6D6886
:1012600005F44041890B074D6B5CC568B5FBF3F590
:10127000056130BD0010024000127A0000093D00F7
:10128000000000201000002010B5FFF75FFBFFF703
:10129000FFFBFFF79DFB10BD704710B500F002F893
:1012A00010BD00000CB5002001900090334800688C
:1012B00040F480303149086000BF3048006800F4D5
:1012C000003000900198401C0190009818B90198D6
:1012D000B0F5A06FF1D12948006800F4003010B1DA
:1012E0000120009001E0002000900098012843D1E7
:1012F0002348006840F01000214908600846006853
:1013000020F0030008600846006840F00200086012
:101310001A484068194948600846406848600846CD
:10132000406840F4806048600846406820F47C10C3
:1013300048600846406840F4E81048600846006885
:1013400040F08070086000BF0C48006800F000703A
:101350000028F9D00948406820F003000749486098
:101360000846406840F00200486000BF03484068FB
:1013700000F00C000828F9D10CBD0000001002405C
:10138000002002407047000010B51348006840F08C
:1013900001001149086008464068104908400E499C
:1013A0004860084600680E4908400B490860084636
:1013B000006820F4802008600846406820F4FE00A1
:1013C00048604FF41F008860FFF767FF4FF0006030
:1013D0000449086010BD0000001002400000FFF842
:1013E000FFFFF6FE08ED00E0F0B50C4615460022C2
:1013F0000021068C4FF6FE773E400684028B018C5E
:101400004FF60C7632407E1C06EA03162E4332431A
:10141000104EB0420ED0104EB0420BD0B0F1804F03
:1014200008D00E4EB04205D00D4EB04202D00D4E47
:10143000B04206D14FF6FD76314044F0010631430B
:1014400005E04FF6F576314044F001063143028362
:101450000184F0BD002C0140003401400004004034
:1014600000080040000C0040F0B50C461546002274
:1014700000210026078C4FF6EF7C07EA0C07078453
:10148000028B018C4FF6FF7707EA041640F6FF4700
:101490003A404FF6FF7707EA03373A434FF6FF77B4
:1014A00007EA05273A43114FB8420ED0104FB84211
:1014B0000BD0B0F1804F08D00E4FB84205D00E4F80
:1014C000B84202D00D4FB84206D14FF6DF7739400F
:1014D00046F01007394305E04FF65F77394044F096
:1014E0001007394302830184F0BD0000002C014045
:1014F000003401400004004000080040000C00409F
:10150000F0B50C461546002200210026078C4FF648
:10151000FF6C07EA0C070784828B018C4FF6FF777C
:1015200007EA04264FF60C773A404FF6FF7707EAB2
:1015300003172F433A43114FB8420ED0104FB84211
:101540000BD0B0F1804F08D00E4FB84205D00E4FEF
:10155000B84202D00D4FB84206D14FF6FF5739407E
:1015600046F48077394305E04FF2FF57394044F4A1
:101570008077394382830184F0BD0000002C014054
:10158000003401400004004000080040000C00400E
:10159000F0B50C461546002200210026078C4EF6B9
:1015A000FF7C07EA0C070784828B018C4FF6FF77DC
:1015B00007EA043640F6FF473A404FF6FF7707EA5E
:1015C00005273A434FF6FF7707EA03373A43114FAF
:1015D000B8420ED0104FB8420BD0B0F1804F08D0B7
:1015E0000E4FB84205D00E4FB84202D00D4FB84250
:1015F00006D14DF6FF77394046F48057394305E070
:1016000047F6FF57394044F48057394382830184B9
:10161000F0BD0000002C01400034014000040040F7
:1016200000080040000C004010B50121880700F0C0
:1016300024F928B101F0E4F80121880700F005F948
:1016400010BD00002DE9FF5F0121634800F015F98E
:1016500040B162488088401C6049888001215E4812
:1016600000F0F3F802215C4800F007F900287DD073
:101670005A48407850B90021574800F0C4F900207A
:10168000564988804880012048709EE0524800F00A
:10169000F1F85249488008464088401C898800EB90
:1016A000014A4F48BAFBF0F100FB11AB5846FEF778
:1016B0007BFF4C4A4C4BCDE90001FEF786FE80468D
:1016C00089464748BAFBF0FB5846FEF76DFF0646D1
:1016D00042464B46FEF7D2FD044622460B4600200A
:1016E0004249FEF7E4FECDE90201FEF7AAFF4049B8
:1016F000086008460068FEF77DFF04462146012089
:1017000001F00EF93B48006828280CDA38480068D8
:101710003949384A126841F8220036480068401CAE
:101720003449086002E000203249086001F09CF86A
:101730003249086008460068FEF770FF04462246FA
:101740000B462FA1334800F037FB1023314A02210A
:101750000020FFF7C7FC29480068FEF74BFF04464E
:101760002146032001F0DCF8244800E031E0006865
:1017700000F094FF284908800846028827A12548E0
:1017800000F01AFB1023234A04210020FFF7AAFCD3
:1017900021480188022001F0C3F824480068244948
:1017A0000968421823A11B4800F006FB1023194AC0
:1017B00000210846FFF796FC1D21880700F045F838
:1017C000002006494870012008700221024800F0FC
:1017D0003CF8BDE8FF9F000000040040240000200A
:1017E00040420F008DEDB5A0F7C6B03E00000840A6
:1017F000200000201C0000206000002014000020B9
:1018000073706565643A2566205269642F4D696E70
:101810000000000000010020340800404343523122
:101820005F56616C3A256420000000003000002003
:1018300058000020536574506F696E743A25642017
:1018400000000000CA4302827047CA430282704708
:1018500021B1028842F00102028004E002884FF6C2
:10186000FE731A400280704710B5FFF725F9FFF7A5
:10187000E9F810BD0146888E704730B50246002059
:1018800000230024158A05EA0103958905EA01046D
:1018900013B10CB1012000E0002030BD70B5054649
:1018A0000C46244885420ED0234885420BD0B5F122
:1018B000804F08D02148854205D02148854202D07A
:1018C0002048854200D100E000BF208850B923891C
:1018D000A28861882846FFF787FDE188284600F046
:1018E00094F825E0208804280AD12389A2886188F9
:1018F0002846FFF7B9FDE188284600F08FF817E089
:10190000208808280AD12389A28861882846FFF701
:10191000F7FDE188284600F08EF809E02389A288C7
:1019200061882846FFF734FEE188284600F08CF8ED
:1019300070BD0000002C0140003401400004004054
:1019400000080040000C00401AB183890B438381DA
:1019500002E083898B4383817047000070B50024C7
:1019600000220023058C4FF6FE7635400584028C5C
:101970008388048B4FF68F752C40B51E2C400D8844
:101980002C43751E2A400D892A434D882A43144D45
:10199000A8420BD0134DA84208D0134DA84205D041
:1019A000124DA84202D0124DA84213D14FF6F7753E
:1019B0002A404D892A434FF6FB752A408D882A43D9
:1019C0004FF6FF652B404FF6FF552B408D892B437B
:1019D000CD892B4383800483CD888586028470BDA6
:1019E000002C01400034014000400140004401400F
:1019F000004801400A460021018B4FF6F773194059
:101A000011430183704781847047028B4FF6F37353
:101A10001A400283028B0A4302837047028B4FF203
:101A2000FF331A400283028B4FF6FF7303EA012350
:101A30001A4302837047828B4FF6F3731A408283F6
:101A4000828B0A4382837047828B4FF2FF331A40A6
:101A50008283828B4FF6FF7303EA01231A4382834A
:101A600070470000002202881D4B98420ED01D4B8B
:101A700098420BD0B0F1804F08D01B4B984205D054
:101A80001A4B984202D01A4B984204D14FF68F73EA
:101A90001A404B881A43174B984207D0164B98426E
:101AA00004D04FF6FF431A40CB881A4302808B883C
:101AB00083850B8803850A4B98420BD0094B9842CB
:101AC00008D00E4B984205D00D4B984202D00D4BDA
:101AD000984201D10B7A038601238382704700006C
:101AE000002C014000340140000400400008004088
:101AF000000C004000100040001400400040014075
:101B0000004401400048014010B540F2255106480C
:101B100000F06DF838B1044800F024F9C4B2214651
:101B2000014800F024F910BD0038014021B182893C
:101B300042F40052828104E082894DF6FF731A401C
:101B40008281704700B585B001210420FFF722FB98
:101B500001218803FFF71EFB4FF40070ADF8100061
:101B600018208DF8130003208DF8120004A91748DF
:101B7000FEF7B7FF4FF48060ADF8100004208DF839
:101B8000130004A91148FEF7ACFF4FF4E1300090B8
:101B90000020ADF80400ADF80600ADF80800ADF87F
:101BA0000C000C20ADF80A006946094800F06EF8F8
:101BB000FFF72FF9012240F22551054800F041F8C6
:101BC00001210348FFF7B2FF05B000BD0008014046
:101BD0000038014002460020B1F5007F00D100BF6F
:101BE00013880B400BB1012000E00020704770B556
:101BF0000246002400230025002040F66A16B14268
:101C000000D100BFC1F3421501F01F03012606FAFF
:101C100003F3012D02D19689334006E0022D02D153
:101C2000168A334001E0968A33400C12012606FAE8
:101C300004F41688344013B10CB1012000E00020F8
:101C400070BDF0B50346002400260025002040F6B4
:101C50006A17B94200D100BF1846C1F3421401F01F
:101C60001F06012707FA06F5012C01D10C3004E00C
:101C7000022C01D1103000E014301AB107682F4354
:101C8000076002E00768AF430760F0BD2DE9F04749
:101C900086B005460E460024A24600BFA146002796
:101CA000B08900B100BF2F462C8A4CF6FF7004406B
:101CB000F08804432C82AC894EF6F3100440B088BF
:101CC00031890843718908430443AC81AC8A4FF6DB
:101CD000FF400440B0890443AC8201A8FFF76AFAD0
:101CE0001F48874202D1DDF810A001E0DDF80CA00A
:101CF000A88900F4004040B10AEBCA0000EB0A10CA
:101D000031684900B0FBF1F807E00AEBCA0000EBCC
:101D10000A1031688900B0FBF1F86420B8FBF0F0DC
:101D200004012009642101FB1089A88900F4004006
:101D300040B1322000EBC900B0FBF1F000F0070029
:101D4000044308E0322000EB09106421B0FBF1F0FD
:101D500000F00F0004432C8106B0BDE8F0870000BE
:101D60000038014001468888C0F308007047C1F37D
:101D700008028280704700BFFEE770B504460D463A
:101D800029462046FFF7F3FF00BF80212046FFF7DA
:101D900021FF0028F9D070BD0FB4054B10B503A981
:101DA000044A029800F0DEF810BC5DF814FB000055
:101DB000DD2700085C0000200FB4084B10B504A913
:101DC00002AA039800F0CEF8044602A9002000F011
:101DD00060FC204610BC5DF814FB00009326000850
:101DE00002E008C8121F08C1002AFAD170477047E4
:101DF000002001E001C1121F002AFBD17047000042
:101E00002DE9FF5FDDE90220010DDDF838B0024366
:101E100018D044F61050A1F2FF3141430D140F9831
:101E2000012820D0A5EB0B00401C5FEA000A4FF010
:101E30000004474EDFF81C91A046504616D5CAF163
:101E4000000728E00F98012443A2012808D00021B0
:101E500000980F9BC0E90021C0E90243BDE8FF9F45
:101E60006FEA0B01F4E7CBF10000DEE7074612E072
:101E7000F80707D02246334640464946FEF7A5FA02
:101E8000804689462246334610461946FEF79DFA9B
:101E900004460E467F10002FEAD1DDE90201BAF1B7
:101EA000000F42464B4602DAFEF78FFA01E0FEF7DA
:101EB000FEFA04460E460022284BFEF7F3FC03D838
:101EC0004FF0FF30014607E00022254B2046314607
:101ED000FEF7D4F9FEF7CDFC102409E0002C0ADB54
:101EE0000A220023FEF7DFFB019B30321A55641EE5
:101EF00050EA0102F2D1641C019AC4F111031444A6
:101F00000F9A012A03D0012208430DD10AE00843A9
:101F100004D000204FF0110B0F9080E7A3EB0B05CE
:101F20006D1E0DE05B4504DD4FF0000205F101057B
:101F300004E003DA4FF00002A5F10105002AECD01D
:101F400000980F99C0E90231C0E9004586E700001A
:101F5000000024400000F03F300000000000F0438B
:101F60000000E03F2DE9FF4F95B09B4689460646AD
:101F700000250FE2252877D100242746F84A0121C1
:101F8000059400E0044316F8013F203B01FA03F0FA
:101F90001042F7D130782A2811D06FF02F03307813
:101FA000A0F13002092A16D8059A44F0020402EB87
:101FB000820203EB42021044761C0590EFE759F8C9
:101FC000042B0592002A03DA504244F40054059091
:101FD00044F00204761C30782E2816D116F8010F32
:101FE00044F004042A280DD06FF02F023078A0F1BD
:101FF0003003092B09D807EB870302EB4303C7180B
:10200000761CF3E759F8047B761C30786C280FD0E7
:1020100006DC4C2817D068280DD06A2814D104E0BB
:10202000742810D07A280FD10DE044F400140AE08F
:1020300044F4801401E044F440147278824202D1E6
:1020400004F58014761C761C307866280BD013DCDF
:10205000582877D009DC002875D04528F6D04628C6
:10206000F4D047281AD19DE118E0632835D06428C0
:1020700079D0652812D195E1702873D008DC6728E3
:10208000F1D069286FD06E280DD06F2806D1B5E049
:1020900073282CD0752875D0782874D05A46179993
:1020A00090476D1C75E1C4F30250022809D0032843
:1020B0000DD0D9F8001004280DD00D6009F10409E5
:1020C00067E1D9F80010EA17C1E90052F6E7D9F83C
:1020D00000100D80F2E70D70F0E719F8041B8DF881
:1020E000001000208DF80100EA46012003E059F8B5
:1020F00004AB4FF0FF3061074FF0000102D40DE058
:1021000008F101018846B9420FDA8045F8DB1AF878
:1021100008100029F4D108E008F101018846814245
:10212000FADB1AF808100029F6D105985B46A0EBF7
:10213000080721463846179A00F094FA284400EB25
:10214000080507E04DE029E10DE01AF8010B5A46B9
:1021500017999047B8F10108F7D25B4621463846F7
:10216000179A13E142E00A220092C4F302524FF0A0
:10217000000A022A08D059F804CB032A4FEAEC716E
:102180000AD00DE029E02AE009F1070121F0070259
:10219000F2E802C1914609E00FFA8CFC4FEAEC71BB
:1021A000042A03D14FFA8CFC4FEAEC71002907DABC
:1021B0000A460021DCF1000C61EB02012D2202E055
:1021C000220504D52B228DF80420012203E0E2072A
:1021D00001D02022F7E7904659E00A2102E01022C0
:1021E0000DE010214FF0000A00910BE010224FF09B
:1021F000000A44F004040827009203E008224FF08C
:10220000000A0092C4F30252022A05D059F804CB06
:102210000021032A08D009E009F1070121F0070293
:10222000F2E802C1914605E01FFA8CFC042A01D1B4
:102230000CF0FF0C4FF00008220728D5702806D0BC
:10224000009B83F0100353EA0A0305D00EE04022FE
:102250008DF80420012208E05CEA010206D0302259
:102260008DF804208DF8050002229046009B83F033
:10227000080353EA0A030AD15CEA010201D16207AA
:1022800005D530228DF804204FF001087F1E582814
:1022900004D034A003900EA802900DE036A0F9E718
:1022A00053466046009AFEF7FEF984460398825C26
:1022B0000298401E029002705CEA0100F0D1029880
:1022C00006A9081A00F1200A600702D524F4803418
:1022D00000E00127574502DDA7EB0A0000E00020DF
:1022E00000EB0A01009005984144401A0590E00374
:1022F00006D45B462146179A059800F0B3F90544C9
:10230000002706E001A85A46C05D179990476D1C4A
:102310007F1C4745F6DBE0030CD55B462146179A48
:10232000059800F09FF9054404E030205A461799BB
:1023300090476D1C0099481E00900029F5DC08E0CC
:10234000029802995A460078491C029117999047C1
:102350006D1CBAF10001AAF1010AF1DC65E100008F
:10236000092801003031323334353637383961626B
:10237000636465660000000030313233343536372F
:1023800038394142434445460000000000F058F906
:102390000544761C307800287FF4ECAD19B028464F
:1023A000BDE8F08F620700D4062709F1070222F08A
:1023B000070CFCE80223E14603F000485FEA080C42
:1023C00002D00FF2702C0DE05FEA045C02D50FF230
:1023D000682C07E05FEAC47C02D00FF2602C01E0B9
:1023E000AFF2700C4FF0FF3823F00043CDF850C02F
:1023F00065280CD006DC452809D046281DD0472882
:102400003DD13DE0662818D067287ED138E0002114
:10241000112F01DB112000E0781CCDE9000106A995
:102420000EA8FFF7EDFCDDE90F010E9A03910021E4
:10243000009207F1010A04914DE04FF0004000972F
:10244000CDE9011006A90EA8FFF7DAFCDDE90F02BD
:1024500003920E9B11990022DDF80CA000930492C8
:1024600011B9791C00EB010AB7EB0A0004D4C0F1E2
:10247000FF3007F1010A0490AAEB0700019044E045
:10248000012F00DA01270021112F01DD112000E0CA
:102490003846CDE9000106A90EA8FFF7B1FCDDE939
:1024A0000F010E9A0391002104910092BA46210770
:1024B0000CD40399514500DA8A46BAF1010F05DDC3
:1024C000009AAAF10101515C302908D0B84202DA21
:1024D00010F1040F06DA0121CDE9011015E0AAF18F
:1024E0000101E9E7002805DC049901440491AAEB05
:1024F000000102E0411C514500DD8A460499401A62
:10250000401C01904FF000400290200704D4019835
:10251000504501DBCDF8048000208DF84F00029873
:102520000DF14F07B0F1004F25D02B200E900298EF
:102530004FF0020800280CDA404202902D200E9045
:1025400007E00A210298FEF798F83031029007F868
:10255000011DB8F10001A8F10108F2DC0298002881
:10256000EFD1791E0E980870307800F0200040F00E
:10257000450007F8020D12A8C01B00F107081498C7
:10258000007800B1012000EB0A01019801EBE07135
:1025900005984144401A401E0590E00306D45B466E
:1025A0002146179A059800F05DF8054414980078C4
:1025B00018B15A46179990476D1CE00324D55B4625
:1025C0002146179A059800F04DF805441CE0049840
:1025D000002807DBDDE90301884203DD0098405C49
:1025E000179901E0179930205A469047049805F151
:1025F0000105401C04900198401E019004D12E203A
:102600005A46179990476D1CBAF10001AAF1010AC8
:10261000DDDC05E017F8010B5A46179990476D1C51
:10262000B8F10001A8F10108F4DC5B462146179AD5
:102630000598ABE62D0000002B00000020000000F4
:102640002DE9F041044600251E461746880404D4AF
:1026500005E039462020B0476D1C641EF9D5284698
:10266000BDE8F0812DE9F041044600251E46904664
:10267000C80301D5302700E02027880404D505E0F1
:1026800041463846B0476D1C641EF9D52846BDE862
:10269000F0810A68531C0B60107070472DE9FC5FD5
:1026A0000746464800680B30454909684418B4F5A8
:1026B000F07F01DCA41E39E0B4F5F07F05DD40F2C7
:1026C0001220844201DC641E30E040F21220844279
:1026D00005DD40F28A20844201DC641E26E040F2DF
:1026E0008A20844204DDB4F52F7F01DC241D1DE027
:1026F000B4F52F7F04DDB4F5487F01DC083415E024
:10270000B4F5487F04DDB4F57A7F01DC0C340DE0CC
:10271000B4F57A7F05DD40F24C40844201DC14348C
:1027200004E040F24C40844200DD08342046FDF7CE
:102730002DFF80463946FDF76CFD054621480168AE
:102740002846FDF711FD204908601E48016828460B
:10275000FDF75CFD1D4908601D4801681A480068C6
:10276000FDF75AFD01901B48016818480068FDF705
:1027700053FD00901848006880F0004B29465846E9
:10278000FDF74AFD82460099FDF740FD814601991B
:10279000FDF73CFD8046FDF714FF0646094805603D
:1027A000B6F5FA6F01DD4FF4FA6640F23A20864240
:1027B00000DA06463046BDE8FC9F000030000020ED
:1027C000580000204C000020540000205000002041
:1027D000380000203C0000203400002070B5044682
:1027E0000D46E1B20548FFF7C2FA00BF8021034859
:1027F000FFF7F0F90028F9D0204670BD00380140FD
:1028000010B502210348FEF7ADFA01210148FEF799
:1028100089FA10BD00080140002101E04A1CD1B234
:102820008142FBDB70470000FEF76AFBFEF748FBC6
:10283000FFF788F9FEF7B6FAFEF794FC012000F0E6
:10284000B3F8FEF721FDFFF70FF804A0FFF7A4FA95
:102850004FF4E1700349086000BFFEE768656C6CE7
:102860006F0000003000002070B52648008828283E
:1028700026DA254800682549224A128841F82200B4
:1028800023480088FDF78BFE054620481D4A128824
:1028900050F822102846FDF767FC0446FDF7AAFE13
:1028A0001B49088017480088401C164908801848B2
:1028B0000088098890FBF1F42046FDF767FE70BDA3
:1028C00013480088282190FBF1F011490988081A63
:1028D0000F49088008460088FDF761FE05460A4852
:1028E00001682846FDF740FC0446FDF783FE0849D1
:1028F000088008460088282190FBF1F42046FDF767
:1029000045FEDCE72C0000202000002060000020B5
:102910002A00002000BF411E0800FCD170470000C3
:1029200070B505460C4653211E48FFF726FA5A217A
:102930001C48FFF722FA48211A48FFF71EFA5921CE
:102940001848FFF71AFAE9B21648FFF716FA0F21EE
:102950001448FFF712FA00211248FFF70EFA00217F
:102960001048FFF70AFA00210E48FFF706FA022185
:102970000C48FFF702FAE1B20A48FFF7FEF9C4F388
:1029800007210848FFF7F9F9C4F307410548FFF7A5
:10299000F4F9210E0348FFF7F0F900210148FFF791
:1029A000ECF970BD0038014010B5044653211648BB
:1029B000FFF7E3F95A211448FFF7DFF948211248DD
:1029C000FFF7DBF959211048FFF7D7F9E1B20E48BC
:1029D000FFF7D3F90F210C48FFF7CFF900210A4880
:1029E000FFF7CBF900210848FFF7C7F90021064897
:1029F000FFF7C3F904210448FFF7BFF9002102489B
:102A0000FFF7BBF910BD00000038014000000000D6
:102A100000000000002F0000000007000700001465
:102A20007F147F1400242A7F2A1200626408132373
:102A300000364955225000000503000000001C220A
:102A40004100000041221C000014083E0814000848
:102A5000083E0808000000A06000000808080808F8
:102A6000000060600000002010080402003E514990
:102A7000453E0000427F400000426151494600212E
:102A800041454B31001814127F1000274545453948
:102A9000003C4A49493000017109050300364949A3
:102AA000493600064949291E00003636000000005C
:102AB00056360000000814224100001414141414A7
:102AC0000000412214080002015109060032495950
:102AD000513E007C1211127C007F49494936003E6C
:102AE00041414122007F4141221C007F4949494127
:102AF000007F09090901003E4149497A007F080821
:102B0000087F0000417F4100002040413F01007FDD
:102B100008142241007F40404040007F020C027FA9
:102B2000007F0408107F003E4141413E007F0909BB
:102B30000906003E4151215E007F091929460046E1
:102B4000494949310001017F0101003F4040403FB8
:102B5000001F2040201F003F4038403F0063140802
:102B600014630007087008070061514945430000DD
:102B70007F41410000552A552A55000041417F0000
:102B800000040201020400404040404000000102F5
:102B90000400002054545478007F484444380038DE
:102BA0004444442000384444487F00385454541866
:102BB00000087E0901020018A4A4A47C007F080478
:102BC00004780000447D4000004080847D00007F48
:102BD000102844000000417F4000007C0418047865
:102BE000007C0804047800384444443800FC242461
:102BF00024180018242418FC007C08040408004849
:102C00005454542000043F444020003C4040207C69
:102C1000001C2040201C003C4030403C0044281058
:102C20002844001CA0A0A07C004464544C4414140C
:102C30001414141400000000000000000000000044
:102C400000000000000000F8000000000000003359
:102C50003000000000100C06100C06000000000000
:102C60000000000040C07840C0784000043F0404E9
:102C70003F040400007088FC08300000001820FFAA
:102C8000211E0000F008F000E018000000211C03E5
:102C90001E211E0000F00888700000001E21232461
:102CA0001927211010160E0000000000000000007F
:102CB00000000000000000E018040200000000070F
:102CC0001820400000020418E00000000040201816
:102CD00007000000404080F0804040000202010FE9
:102CE00001020200000000F0000000000101011FCD
:102CF00001010100000000000000000080B0700031
:102D000000000000000000000000000000010101C0
:102D1000010101010000000000000000003030004F
:102D20000000000000000000806018040060180629
:102D30000100000000E010080810E000000F102063
:102D400020100F00001010F8000000000020203FAD
:102D50002020000000700808088870000030282437
:102D600022213000003008888848300000182020D8
:102D700020110E000000C02010F8000000070424FD
:102D8000243F240000F80888880808000019212042
:102D900020110E0000E0108888180000000F11209C
:102DA00020110E0000380808C83808000000003F55
:102DB000000000000070880808887000001C2221B4
:102DC00021221C0000E010080810E0000000312261
:102DD00022110F00000000C0C00000000000003001
:102DE0003000000000000080000000000000806053
:102DF00000000000000080402010080000010204D4
:102E000008102000404040404040400004040404BA
:102E10000404040000081020408000000020100876
:102E200004020100007048080808F00000000030AB
:102E300036010000C030C828E810E0000718272439
:102E400023140B000000C038E0000000203C2302E7
:102E50000227382008F8888888700000203F20204A
:102E600020110E00C030080808083800071820207C
:102E70002010080008F808080810E000203F202073
:102E800020100F0008F88888E8081000203F202054
:102E90002320180008F88888E8081000203F200048
:102EA00003000000C0300808083800000718202080
:102EB000221E020008F808000008F808203F21013F
:102EC00001213F20000808F8080800000020203FEA
:102ED0002020000000000808F8080800C08080805A
:102EE0007F00000008F888C028180800203F200153
:102EF0002638200008F8080000000000203F2020AD
:102F00002020300008F8F800F8F80800203F003FC3
:102F1000003F200008F830C00008F808203F2000DB
:102F200007183F00E01008080810E0000F102020EC
:102F300020100F0008F808080808F000203F2101C1
:102F400001010000E01008080810E0000F18242418
:102F500038504F0008F8888888887000203F20008B
:102F6000030C302000708808080838000038202141
:102F700021221C00180808F8080818000000203F4B
:102F80002000000008F808000008F808001F2020B2
:102F900020201F000878880000C838080000073883
:102FA0000E010000F80800F80008F800033C0700D4
:102FB000073C0300081868808068180820302C033C
:102FC000032C30200838C800C83808000000203F13
:102FD0002000000010080808C83808002038262102
:102FE00020201800000000FE020202000000007F06
:102FF00040404000000C30C0000000000000000114
:103000000638C00000020202FE00000000404040FE
:103010007F00000000000402020204000000000023
:1030200000000000000000000000000080808080A0
:103030008080808000020204000000000000000088
:103040000000000000008080808000000019242221
:1030500022223F2008F8008080000000003F11205D
:1030600020110E000000008080800000000E112062
:1030700020201100000000808088F800000E112040
:1030800020103F200000808080800000001F22224E
:1030900022221300008080F0888888180020203FBA
:1030A000202000000000808080808000006B9494CD
:1030B0009493600008F8008080800000203F210089
:1030C00000203F2000809898000000000020203F52
:1030D00020200000000000809898000000C0808040
:1030E000807F000008F8000080808000203F2402DC
:1030F0002D302000000808F8000000000020203FCC
:10310000202000008080808080808000203F200080
:103110003F20003F8080008080800000203F210011
:1031200000203F200000808080800000001F2020C1
:1031300020201F00808000808000000080FFA120F0
:1031400020110E000000008080808000000E112001
:1031500020A0FF80808080008080800020203F2190
:103160002000010000008080808080000033242443
:1031700024241900008080E0808000000000001FEF
:10318000202000008080000000808000001F2020A0
:1031900020103F20808080000080808000010E3061
:1031A0000806010080800080008080800F300C03C2
:1031B0000C300F0000808000808080000020312EC5
:1031C0000E312000808080000080808080818E70A1
:1031D0001806010000808080808080000021302C53
:1031E0002221300000000000807C0202000000006C
:1031F000003F404000000000FF0000000000000011
:10320000FF0000000002027C800000000040403F00
:10321000000000000006010102020404000000009A
:1032200000000000443200080000002060000000A0
:10323000E01D0008A432000860000020B004000077
:10324000F01D000800000000010203040102030455
:10325000060708090204060800000000000000003C
:10326000000000000000000000000000000000005E
:10327000000000000000000000008C429A99993E76
:1032800000004842000000000000000000000000B4
:10329000000000000000000000000000000000002E
:0432A000000000002A
:0400000508000131BD
:00000001FF
